{
  "_format": "hh-sol-artifact-1",
  "contractName": "AuditRegistry",
  "sourceName": "contracts/AuditRegistry.sol",
  "abi": [
    {
      "anonymous": false,
      "inputs": [
        {
          "indexed": false,
          "internalType": "uint256",
          "name": "id",
          "type": "uint256"
        },
        {
          "indexed": false,
          "internalType": "bytes32",
          "name": "hash",
          "type": "bytes32"
        },
        {
          "indexed": false,
          "internalType": "uint8",
          "name": "riskScore",
          "type": "uint8"
        }
      ],
      "name": "AuditRegistered",
      "type": "event"
    },
    {
      "inputs": [
        {
          "internalType": "uint256",
          "name": "",
          "type": "uint256"
        }
      ],
      "name": "audits",
      "outputs": [
        {
          "internalType": "uint256",
          "name": "id",
          "type": "uint256"
        },
        {
          "internalType": "bytes32",
          "name": "contractHash",
          "type": "bytes32"
        },
        {
          "internalType": "string",
          "name": "summary",
          "type": "string"
        },
        {
          "internalType": "uint8",
          "name": "riskScore",
          "type": "uint8"
        },
        {
          "internalType": "uint256",
          "name": "timestamp",
          "type": "uint256"
        }
      ],
      "stateMutability": "view",
      "type": "function"
    },
    {
      "inputs": [
        {
          "internalType": "bytes32",
          "name": "",
          "type": "bytes32"
        }
      ],
      "name": "latestByHash",
      "outputs": [
        {
          "internalType": "uint256",
          "name": "",
          "type": "uint256"
        }
      ],
      "stateMutability": "view",
      "type": "function"
    },
    {
      "inputs": [],
      "name": "nextAuditId",
      "outputs": [
        {
          "internalType": "uint256",
          "name": "",
          "type": "uint256"
        }
      ],
      "stateMutability": "view",
      "type": "function"
    },
    {
      "inputs": [
        {
          "internalType": "bytes32",
          "name": "contractHash",
          "type": "bytes32"
        },
        {
          "internalType": "string",
          "name": "summary",
          "type": "string"
        },
        {
          "internalType": "uint8",
          "name": "riskScore",
          "type": "uint8"
        }
      ],
      "name": "registerAudit",
      "outputs": [
        {
          "internalType": "uint256",
          "name": "",
          "type": "uint256"
        }
      ],
      "stateMutability": "nonpayable",
      "type": "function"
    }
  ],
  "bytecode": "0x6080604052600160005534801561001557600080fd5b50610a44806100256000396000f3fe608060405234801561001057600080fd5b506004361061004c5760003560e01c80633572ec4414610051578063b60e73db14610081578063c569c2c3146100b5578063d1a69cc4146100e5575b600080fd5b61006b6004803603810190610066919061041d565b610103565b60405161007891906104aa565b60405180910390f35b61009b600480360381019061009691906104f1565b610256565b6040516100ac9594939291906105cc565b60405180910390f35b6100cf60048036038101906100ca9190610626565b610321565b6040516100dc91906104aa565b60405180910390f35b6100ed610339565b6040516100fa91906104aa565b60405180910390f35b60008060008081548092919061011890610682565b9190505590506040518060a0016040528082815260200187815260200186868080601f016020809104026020016040519081016040528093929190818152602001838380828437600081840152601f19601f8201169050808301925050505050505081526020018460ff1681526020014281525060016000838152602001908152602001600020600082015181600001556020820151816001015560408201518160020190816101c89190610905565b5060608201518160030160006101000a81548160ff021916908360ff160217905550608082015181600401559050508060026000888152602001908152602001600020819055507f90e737d189525186fa811442c067c9544c3a1dc0527fbc653d7971bdeed69d6e818785604051610242939291906109d7565b60405180910390a180915050949350505050565b600160205280600052604060002060009150905080600001549080600101549080600201805461028590610728565b80601f01602080910402602001604051908101604052809291908181526020018280546102b190610728565b80156102fe5780601f106102d3576101008083540402835291602001916102fe565b820191906000526020600020905b8154815290600101906020018083116102e157829003601f168201915b5050505050908060030160009054906101000a900460ff16908060040154905085565b60026020528060005260406000206000915090505481565b60005481565b600080fd5b600080fd5b6000819050919050565b61035c81610349565b811461036757600080fd5b50565b60008135905061037981610353565b92915050565b600080fd5b600080fd5b600080fd5b60008083601f8401126103a4576103a361037f565b5b8235905067ffffffffffffffff8111156103c1576103c0610384565b5b6020830191508360018202830111156103dd576103dc610389565b5b9250929050565b600060ff82169050919050565b6103fa816103e4565b811461040557600080fd5b50565b600081359050610417816103f1565b92915050565b600080600080606085870312156104375761043661033f565b5b60006104458782880161036a565b945050602085013567ffffffffffffffff81111561046657610465610344565b5b6104728782880161038e565b9350935050604061048587828801610408565b91505092959194509250565b6000819050919050565b6104a481610491565b82525050565b60006020820190506104bf600083018461049b565b92915050565b6104ce81610491565b81146104d957600080fd5b50565b6000813590506104eb816104c5565b92915050565b6000602082840312156105075761050661033f565b5b6000610515848285016104dc565b91505092915050565b61052781610349565b82525050565b600081519050919050565b600082825260208201905092915050565b60005b8381101561056757808201518184015260208101905061054c565b60008484015250505050565b6000601f19601f8301169050919050565b600061058f8261052d565b6105998185610538565b93506105a9818560208601610549565b6105b281610573565b840191505092915050565b6105c6816103e4565b82525050565b600060a0820190506105e1600083018861049b565b6105ee602083018761051e565b81810360408301526106008186610584565b905061060f60608301856105bd565b61061c608083018461049b565b9695505050505050565b60006020828403121561063c5761063b61033f565b5b600061064a8482850161036a565b91505092915050565b7f4e487b7100000000000000000000000000000000000000000000000000000000600052601160045260246000fd5b600061068d82610491565b91507fffffffffffffffffffffffffffffffffffffffffffffffffffffffffffffffff82036106bf576106be610653565b5b600182019050919050565b7f4e487b7100000000000000000000000000000000000000000000000000000000600052604160045260246000fd5b7f4e487b7100000000000000000000000000000000000000000000000000000000600052602260045260246000fd5b6000600282049050600182168061074057607f821691505b602082108103610753576107526106f9565b5b50919050565b60008190508160005260206000209050919050565b60006020601f8301049050919050565b600082821b905092915050565b6000600883026107bb7fffffffffffffffffffffffffffffffffffffffffffffffffffffffffffffffff8261077e565b6107c5868361077e565b95508019841693508086168417925050509392505050565b6000819050919050565b60006108026107fd6107f884610491565b6107dd565b610491565b9050919050565b6000819050919050565b61081c836107e7565b61083061082882610809565b84845461078b565b825550505050565b600090565b610845610838565b610850818484610813565b505050565b5b818110156108745761086960008261083d565b600181019050610856565b5050565b601f8211156108b95761088a81610759565b6108938461076e565b810160208510156108a2578190505b6108b66108ae8561076e565b830182610855565b50505b505050565b600082821c905092915050565b60006108dc600019846008026108be565b1980831691505092915050565b60006108f583836108cb565b9150826002028217905092915050565b61090e8261052d565b67ffffffffffffffff811115610927576109266106ca565b5b6109318254610728565b61093c828285610878565b600060209050601f83116001811461096f576000841561095d578287015190505b61096785826108e9565b8655506109cf565b601f19841661097d86610759565b60005b828110156109a557848901518255600182019150602085019450602081019050610980565b868310156109c257848901516109be601f8916826108cb565b8355505b6001600288020188555050505b505050505050565b60006060820190506109ec600083018661049b565b6109f9602083018561051e565b610a0660408301846105bd565b94935050505056fea2646970667358221220a1207ded93d77227603e22e98a45d2b772b3bdf775bfd166856efe5a39fecf3664736f6c63430008140033",
  "linkReferences": {},
  "deployedLinkReferences": {}
}