{
  "_format": "hh-sol-artifact-1",
  "contractName": "AuditCertificate",
  "sourceName": "contracts/AuditCertificate.sol",
  "abi": [
    {
      "inputs": [
        {
          "internalType": "address",
          "name": "_registry",
          "type": "address"
        }
      ],
      "stateMutability": "nonpayable",
      "type": "constructor"
    },
    {
      "inputs": [
        {
          "internalType": "address",
          "name": "sender",
          "type": "address"
        },
        {
          "internalType": "uint256",
          "name": "tokenId",
          "type": "uint256"
        },
        {
          "internalType": "address",
          "name": "owner",
          "type": "address"
        }
      ],
      "name": "ERC721IncorrectOwner",
      "type": "error"
    },
    {
      "inputs": [
        {
          "internalType": "address",
          "name": "operator",
          "type": "address"
        },
        {
          "internalType": "uint256",
          "name": "tokenId",
          "type": "uint256"
        }
      ],
      "name": "ERC721InsufficientApproval",
      "type": "error"
    },
    {
      "inputs": [
        {
          "internalType": "address",
          "name": "approver",
          "type": "address"
        }
      ],
      "name": "ERC721InvalidApprover",
      "type": "error"
    },
    {
      "inputs": [
        {
          "internalType": "address",
          "name": "operator",
          "type": "address"
        }
      ],
      "name": "ERC721InvalidOperator",
      "type": "error"
    },
    {
      "inputs": [
        {
          "internalType": "address",
          "name": "owner",
          "type": "address"
        }
      ],
      "name": "ERC721InvalidOwner",
      "type": "error"
    },
    {
      "inputs": [
        {
          "internalType": "address",
          "name": "receiver",
          "type": "address"
        }
      ],
      "name": "ERC721InvalidReceiver",
      "type": "error"
    },
    {
      "inputs": [
        {
          "internalType": "address",
          "name": "sender",
          "type": "address"
        }
      ],
      "name": "ERC721InvalidSender",
      "type": "error"
    },
    {
      "inputs": [
        {
          "internalType": "uint256",
          "name": "tokenId",
          "type": "uint256"
        }
      ],
      "name": "ERC721NonexistentToken",
      "type": "error"
    },
    {
      "anonymous": false,
      "inputs": [
        {
          "indexed": true,
          "internalType": "address",
          "name": "owner",
          "type": "address"
        },
        {
          "indexed": true,
          "internalType": "address",
          "name": "approved",
          "type": "address"
        },
        {
          "indexed": true,
          "internalType": "uint256",
          "name": "tokenId",
          "type": "uint256"
        }
      ],
      "name": "Approval",
      "type": "event"
    },
    {
      "anonymous": false,
      "inputs": [
        {
          "indexed": true,
          "internalType": "address",
          "name": "owner",
          "type": "address"
        },
        {
          "indexed": true,
          "internalType": "address",
          "name": "operator",
          "type": "address"
        },
        {
          "indexed": false,
          "internalType": "bool",
          "name": "approved",
          "type": "bool"
        }
      ],
      "name": "ApprovalForAll",
      "type": "event"
    },
    {
      "anonymous": false,
      "inputs": [
        {
          "indexed": true,
          "internalType": "address",
          "name": "from",
          "type": "address"
        },
        {
          "indexed": true,
          "internalType": "address",
          "name": "to",
          "type": "address"
        },
        {
          "indexed": true,
          "internalType": "uint256",
          "name": "tokenId",
          "type": "uint256"
        }
      ],
      "name": "Transfer",
      "type": "event"
    },
    {
      "inputs": [
        {
          "internalType": "address",
          "name": "to",
          "type": "address"
        },
        {
          "internalType": "uint256",
          "name": "tokenId",
          "type": "uint256"
        }
      ],
      "name": "approve",
      "outputs": [],
      "stateMutability": "nonpayable",
      "type": "function"
    },
    {
      "inputs": [
        {
          "internalType": "address",
          "name": "owner",
          "type": "address"
        }
      ],
      "name": "balanceOf",
      "outputs": [
        {
          "internalType": "uint256",
          "name": "",
          "type": "uint256"
        }
      ],
      "stateMutability": "view",
      "type": "function"
    },
    {
      "inputs": [
        {
          "internalType": "uint256",
          "name": "tokenId",
          "type": "uint256"
        }
      ],
      "name": "getApproved",
      "outputs": [
        {
          "internalType": "address",
          "name": "",
          "type": "address"
        }
      ],
      "stateMutability": "view",
      "type": "function"
    },
    {
      "inputs": [
        {
          "internalType": "address",
          "name": "owner",
          "type": "address"
        },
        {
          "internalType": "address",
          "name": "operator",
          "type": "address"
        }
      ],
      "name": "isApprovedForAll",
      "outputs": [
        {
          "internalType": "bool",
          "name": "",
          "type": "bool"
        }
      ],
      "stateMutability": "view",
      "type": "function"
    },
    {
      "inputs": [
        {
          "internalType": "address",
          "name": "to",
          "type": "address"
        }
      ],
      "name": "mint",
      "outputs": [],
      "stateMutability": "nonpayable",
      "type": "function"
    },
    {
      "inputs": [],
      "name": "name",
      "outputs": [
        {
          "internalType": "string",
          "name": "",
          "type": "string"
        }
      ],
      "stateMutability": "view",
      "type": "function"
    },
    {
      "inputs": [],
      "name": "nextId",
      "outputs": [
        {
          "internalType": "uint256",
          "name": "",
          "type": "uint256"
        }
      ],
      "stateMutability": "view",
      "type": "function"
    },
    {
      "inputs": [
        {
          "internalType": "uint256",
          "name": "tokenId",
          "type": "uint256"
        }
      ],
      "name": "ownerOf",
      "outputs": [
        {
          "internalType": "address",
          "name": "",
          "type": "address"
        }
      ],
      "stateMutability": "view",
      "type": "function"
    },
    {
      "inputs": [],
      "name": "registry",
      "outputs": [
        {
          "internalType": "address",
          "name": "",
          "type": "address"
        }
      ],
      "stateMutability": "view",
      "type": "function"
    },
    {
      "inputs": [
        {
          "internalType": "address",
          "name": "from",
          "type": "address"
        },
        {
          "internalType": "address",
          "name": "to",
          "type": "address"
        },
        {
          "internalType": "uint256",
          "name": "tokenId",
          "type": "uint256"
        }
      ],
      "name": "safeTransferFrom",
      "outputs": [],
      "stateMutability": "nonpayable",
      "type": "function"
    },
    {
      "inputs": [
        {
          "internalType": "address",
          "name": "from",
          "type": "address"
        },
        {
          "internalType": "address",
          "name": "to",
          "type": "address"
        },
        {
          "internalType": "uint256",
          "name": "tokenId",
          "type": "uint256"
        },
        {
          "internalType": "bytes",
          "name": "data",
          "type": "bytes"
        }
      ],
      "name": "safeTransferFrom",
      "outputs": [],
      "stateMutability": "nonpayable",
      "type": "function"
    },
    {
      "inputs": [
        {
          "internalType": "address",
          "name": "operator",
          "type": "address"
        },
        {
          "internalType": "bool",
          "name": "approved",
          "type": "bool"
        }
      ],
      "name": "setApprovalForAll",
      "outputs": [],
      "stateMutability": "nonpayable",
      "type": "function"
    },
    {
      "inputs": [
        {
          "internalType": "bytes4",
          "name": "interfaceId",
          "type": "bytes4"
        }
      ],
      "name": "supportsInterface",
      "outputs": [
        {
          "internalType": "bool",
          "name": "",
          "type": "bool"
        }
      ],
      "stateMutability": "view",
      "type": "function"
    },
    {
      "inputs": [],
      "name": "symbol",
      "outputs": [
        {
          "internalType": "string",
          "name": "",
          "type": "string"
        }
      ],
      "stateMutability": "view",
      "type": "function"
    },
    {
      "inputs": [
        {
          "internalType": "uint256",
          "name": "tokenId",
          "type": "uint256"
        }
      ],
      "name": "tokenURI",
      "outputs": [
        {
          "internalType": "string",
          "name": "",
          "type": "string"
        }
      ],
      "stateMutability": "view",
      "type": "function"
    },
    {
      "inputs": [
        {
          "internalType": "address",
          "name": "from",
          "type": "address"
        },
        {
          "internalType": "address",
          "name": "to",
          "type": "address"
        },
        {
          "internalType": "uint256",
          "name": "tokenId",
          "type": "uint256"
        }
      ],
      "name": "transferFrom",
      "outputs": [],
      "stateMutability": "nonpayable",
      "type": "function"
    }
  ],
  "bytecode": "0x608060405260016006553480156200001657600080fd5b50604051620024e5380380620024e583398181016040528101906200003c919062000180565b6040518060400160405280601181526020017f41756469742043657274696669636174650000000000000000000000000000008152506040518060400160405280600581526020017f41554449540000000000000000000000000000000000000000000000000000008152508160009081620000b991906200042c565b508060019081620000cb91906200042c565b50505080600760006101000a81548173ffffffffffffffffffffffffffffffffffffffff021916908373ffffffffffffffffffffffffffffffffffffffff1602179055505062000513565b600080fd5b600073ffffffffffffffffffffffffffffffffffffffff82169050919050565b600062000148826200011b565b9050919050565b6200015a816200013b565b81146200016657600080fd5b50565b6000815190506200017a816200014f565b92915050565b60006020828403121562000199576200019862000116565b5b6000620001a98482850162000169565b91505092915050565b600081519050919050565b7f4e487b7100000000000000000000000000000000000000000000000000000000600052604160045260246000fd5b7f4e487b7100000000000000000000000000000000000000000000000000000000600052602260045260246000fd5b600060028204905060018216806200023457607f821691505b6020821081036200024a5762000249620001ec565b5b50919050565b60008190508160005260206000209050919050565b60006020601f8301049050919050565b600082821b905092915050565b600060088302620002b47fffffffffffffffffffffffffffffffffffffffffffffffffffffffffffffffff8262000275565b620002c0868362000275565b95508019841693508086168417925050509392505050565b6000819050919050565b6000819050919050565b60006200030d620003076200030184620002d8565b620002e2565b620002d8565b9050919050565b6000819050919050565b6200032983620002ec565b62000341620003388262000314565b84845462000282565b825550505050565b600090565b6200035862000349565b620003658184846200031e565b505050565b5b818110156200038d57620003816000826200034e565b6001810190506200036b565b5050565b601f821115620003dc57620003a68162000250565b620003b18462000265565b81016020851015620003c1578190505b620003d9620003d08562000265565b8301826200036a565b50505b505050565b600082821c905092915050565b60006200040160001984600802620003e1565b1980831691505092915050565b60006200041c8383620003ee565b9150826002028217905092915050565b6200043782620001b2565b67ffffffffffffffff811115620004535762000452620001bd565b5b6200045f82546200021b565b6200046c82828562000391565b600060209050601f831160018114620004a457600084156200048f578287015190505b6200049b85826200040e565b8655506200050b565b601f198416620004b48662000250565b60005b82811015620004de57848901518255600182019150602085019450602081019050620004b7565b86831015620004fe5784890151620004fa601f891682620003ee565b8355505b6001600288020188555050505b505050505050565b611fc280620005236000396000f3fe608060405234801561001057600080fd5b50600436106101005760003560e01c80636a62784211610097578063a22cb46511610066578063a22cb465146102ad578063b88d4fde146102c9578063c87b56dd146102e5578063e985e9c51461031557610100565b80636a6278421461022557806370a08231146102415780637b1039991461027157806395d89b411461028f57610100565b806323b872dd116100d357806323b872dd1461019f57806342842e0e146101bb57806361b8ce8c146101d75780636352211e146101f557610100565b806301ffc9a71461010557806306fdde0314610135578063081812fc14610153578063095ea7b314610183575b600080fd5b61011f600480360381019061011a9190611729565b610345565b60405161012c9190611771565b60405180910390f35b61013d610427565b60405161014a919061181c565b60405180910390f35b61016d60048036038101906101689190611874565b6104b9565b60405161017a91906118e2565b60405180910390f35b61019d60048036038101906101989190611929565b6104d5565b005b6101b960048036038101906101b49190611969565b6104eb565b005b6101d560048036038101906101d09190611969565b6105ed565b005b6101df61060d565b6040516101ec91906119cb565b60405180910390f35b61020f600480360381019061020a9190611874565b610613565b60405161021c91906118e2565b60405180910390f35b61023f600480360381019061023a91906119e6565b610625565b005b61025b600480360381019061025691906119e6565b6106d8565b60405161026891906119cb565b60405180910390f35b610279610792565b60405161028691906118e2565b60405180910390f35b6102976107b8565b6040516102a4919061181c565b60405180910390f35b6102c760048036038101906102c29190611a3f565b61084a565b005b6102e360048036038101906102de9190611bb4565b610860565b005b6102ff60048036038101906102fa9190611874565b610885565b60405161030c919061181c565b60405180910390f35b61032f600480360381019061032a9190611c37565b6108ee565b60405161033c9190611771565b60405180910390f35b60007f80ac58cd000000000000000000000000000000000000000000000000000000007bffffffffffffffffffffffffffffffffffffffffffffffffffffffff1916827bffffffffffffffffffffffffffffffffffffffffffffffffffffffff1916148061041057507f5b5e139f000000000000000000000000000000000000000000000000000000007bffffffffffffffffffffffffffffffffffffffffffffffffffffffff1916827bffffffffffffffffffffffffffffffffffffffffffffffffffffffff1916145b80610420575061041f82610982565b5b9050919050565b60606000805461043690611ca6565b80601f016020809104026020016040519081016040528092919081815260200182805461046290611ca6565b80156104af5780601f10610484576101008083540402835291602001916104af565b820191906000526020600020905b81548152906001019060200180831161049257829003601f168201915b5050505050905090565b60006104c4826109ec565b506104ce82610a74565b9050919050565b6104e782826104e2610ab1565b610ab9565b5050565b600073ffffffffffffffffffffffffffffffffffffffff168273ffffffffffffffffffffffffffffffffffffffff160361055d5760006040517f64a0ae9200000000000000000000000000000000000000000000000000000000815260040161055491906118e2565b60405180910390fd5b6000610571838361056c610ab1565b610acb565b90508373ffffffffffffffffffffffffffffffffffffffff168173ffffffffffffffffffffffffffffffffffffffff16146105e7578382826040517f64283d7b0000000000000000000000000000000000000000000000000000000081526004016105de93929190611cd7565b60405180910390fd5b50505050565b61060883838360405180602001604052806000815250610860565b505050565b60065481565b600061061e826109ec565b9050919050565b600760009054906101000a900473ffffffffffffffffffffffffffffffffffffffff1673ffffffffffffffffffffffffffffffffffffffff163373ffffffffffffffffffffffffffffffffffffffff16146106b5576040517f08c379a00000000000000000000000000000000000000000000000000000000081526004016106ac90611d5a565b60405180910390fd5b6106d581600660008154809291906106cc90611da9565b91905055610ce5565b50565b60008073ffffffffffffffffffffffffffffffffffffffff168273ffffffffffffffffffffffffffffffffffffffff160361074b5760006040517f89c62b6400000000000000000000000000000000000000000000000000000000815260040161074291906118e2565b60405180910390fd5b600360008373ffffffffffffffffffffffffffffffffffffffff1673ffffffffffffffffffffffffffffffffffffffff168152602001908152602001600020549050919050565b600760009054906101000a900473ffffffffffffffffffffffffffffffffffffffff1681565b6060600180546107c790611ca6565b80601f01602080910402602001604051908101604052809291908181526020018280546107f390611ca6565b80156108405780601f1061081557610100808354040283529160200191610840565b820191906000526020600020905b81548152906001019060200180831161082357829003601f168201915b5050505050905090565b61085c610855610ab1565b8383610dde565b5050565b61086b8484846104eb565b61087f610876610ab1565b85858585610f4d565b50505050565b6060610890826109ec565b50600061089b6110fe565b905060008151116108bb57604051806020016040528060008152506108e6565b806108c584611115565b6040516020016108d6929190611e2d565b6040516020818303038152906040525b915050919050565b6000600560008473ffffffffffffffffffffffffffffffffffffffff1673ffffffffffffffffffffffffffffffffffffffff16815260200190815260200160002060008373ffffffffffffffffffffffffffffffffffffffff1673ffffffffffffffffffffffffffffffffffffffff16815260200190815260200160002060009054906101000a900460ff16905092915050565b60007f01ffc9a7000000000000000000000000000000000000000000000000000000007bffffffffffffffffffffffffffffffffffffffffffffffffffffffff1916827bffffffffffffffffffffffffffffffffffffffffffffffffffffffff1916149050919050565b6000806109f8836111e3565b9050600073ffffffffffffffffffffffffffffffffffffffff168173ffffffffffffffffffffffffffffffffffffffff1603610a6b57826040517f7e273289000000000000000000000000000000000000000000000000000000008152600401610a6291906119cb565b60405180910390fd5b80915050919050565b60006004600083815260200190815260200160002060009054906101000a900473ffffffffffffffffffffffffffffffffffffffff169050919050565b600033905090565b610ac68383836001611220565b505050565b600080610ad7846111e3565b9050600073ffffffffffffffffffffffffffffffffffffffff168373ffffffffffffffffffffffffffffffffffffffff1614610b1957610b188184866113e5565b5b600073ffffffffffffffffffffffffffffffffffffffff168173ffffffffffffffffffffffffffffffffffffffff1614610baa57610b5b600085600080611220565b6001600360008373ffffffffffffffffffffffffffffffffffffffff1673ffffffffffffffffffffffffffffffffffffffff168152602001908152602001600020600082825403925050819055505b600073ffffffffffffffffffffffffffffffffffffffff168573ffffffffffffffffffffffffffffffffffffffff1614610c2d576001600360008773ffffffffffffffffffffffffffffffffffffffff1673ffffffffffffffffffffffffffffffffffffffff168152602001908152602001600020600082825401925050819055505b846002600086815260200190815260200160002060006101000a81548173ffffffffffffffffffffffffffffffffffffffff021916908373ffffffffffffffffffffffffffffffffffffffff160217905550838573ffffffffffffffffffffffffffffffffffffffff168273ffffffffffffffffffffffffffffffffffffffff167fddf252ad1be2c89b69c2b068fc378daa952ba7f163c4a11628f55a4df523b3ef60405160405180910390a4809150509392505050565b600073ffffffffffffffffffffffffffffffffffffffff168273ffffffffffffffffffffffffffffffffffffffff1603610d575760006040517f64a0ae92000000000000000000000000000000000000000000000000000000008152600401610d4e91906118e2565b60405180910390fd5b6000610d6583836000610acb565b9050600073ffffffffffffffffffffffffffffffffffffffff168173ffffffffffffffffffffffffffffffffffffffff1614610dd95760006040517f73c6ac6e000000000000000000000000000000000000000000000000000000008152600401610dd091906118e2565b60405180910390fd5b505050565b600073ffffffffffffffffffffffffffffffffffffffff168273ffffffffffffffffffffffffffffffffffffffff1603610e4f57816040517f5b08ba18000000000000000000000000000000000000000000000000000000008152600401610e4691906118e2565b60405180910390fd5b80600560008573ffffffffffffffffffffffffffffffffffffffff1673ffffffffffffffffffffffffffffffffffffffff16815260200190815260200160002060008473ffffffffffffffffffffffffffffffffffffffff1673ffffffffffffffffffffffffffffffffffffffff16815260200190815260200160002060006101000a81548160ff0219169083151502179055508173ffffffffffffffffffffffffffffffffffffffff168373ffffffffffffffffffffffffffffffffffffffff167f17307eab39ab6107e8899845ad3d59bd9653f200f220920489ca2b5937696c3183604051610f409190611771565b60405180910390a3505050565b60008373ffffffffffffffffffffffffffffffffffffffff163b11156110f7578273ffffffffffffffffffffffffffffffffffffffff1663150b7a02868685856040518563ffffffff1660e01b8152600401610fac9493929190611ea6565b6020604051808303816000875af1925050508015610fe857506040513d601f19601f82011682018060405250810190610fe59190611f07565b60015b61106c573d8060008114611018576040519150601f19603f3d011682016040523d82523d6000602084013e61101d565b606091505b50600081510361106457836040517f64a0ae9200000000000000000000000000000000000000000000000000000000815260040161105b91906118e2565b60405180910390fd5b805160208201fd5b63150b7a0260e01b7bffffffffffffffffffffffffffffffffffffffffffffffffffffffff1916817bffffffffffffffffffffffffffffffffffffffffffffffffffffffff1916146110f557836040517f64a0ae920000000000000000000000000000000000000000000000000000000081526004016110ec91906118e2565b60405180910390fd5b505b5050505050565b606060405180602001604052806000815250905090565b606060006001611124846114a9565b01905060008167ffffffffffffffff81111561114357611142611a89565b5b6040519080825280601f01601f1916602001820160405280156111755781602001600182028036833780820191505090505b509050600082602083010190505b6001156111d8578080600190039150507f3031323334353637383961626364656600000000000000000000000000000000600a86061a8153600a85816111cc576111cb611f34565b5b04945060008503611183575b819350505050919050565b60006002600083815260200190815260200160002060009054906101000a900473ffffffffffffffffffffffffffffffffffffffff169050919050565b80806112595750600073ffffffffffffffffffffffffffffffffffffffff168273ffffffffffffffffffffffffffffffffffffffff1614155b1561138d576000611269846109ec565b9050600073ffffffffffffffffffffffffffffffffffffffff168373ffffffffffffffffffffffffffffffffffffffff16141580156112d457508273ffffffffffffffffffffffffffffffffffffffff168173ffffffffffffffffffffffffffffffffffffffff1614155b80156112e757506112e581846108ee565b155b1561132957826040517fa9fbf51f00000000000000000000000000000000000000000000000000000000815260040161132091906118e2565b60405180910390fd5b811561138b57838573ffffffffffffffffffffffffffffffffffffffff168273ffffffffffffffffffffffffffffffffffffffff167f8c5be1e5ebec7d5bd14f71427d1e84f3dd0314c0f7b2291e5b200ac8c7c3b92560405160405180910390a45b505b836004600085815260200190815260200160002060006101000a81548173ffffffffffffffffffffffffffffffffffffffff021916908373ffffffffffffffffffffffffffffffffffffffff16021790555050505050565b6113f08383836115fc565b6114a457600073ffffffffffffffffffffffffffffffffffffffff168373ffffffffffffffffffffffffffffffffffffffff160361146557806040517f7e27328900000000000000000000000000000000000000000000000000000000815260040161145c91906119cb565b60405180910390fd5b81816040517f177e802f00000000000000000000000000000000000000000000000000000000815260040161149b929190611f63565b60405180910390fd5b505050565b600080600090507a184f03e93ff9f4daa797ed6e38ed64bf6a1f0100000000000000008310611507577a184f03e93ff9f4daa797ed6e38ed64bf6a1f01000000000000000083816114fd576114fc611f34565b5b0492506040810190505b6d04ee2d6d415b85acef81000000008310611544576d04ee2d6d415b85acef8100000000838161153a57611539611f34565b5b0492506020810190505b662386f26fc10000831061157357662386f26fc10000838161156957611568611f34565b5b0492506010810190505b6305f5e100831061159c576305f5e100838161159257611591611f34565b5b0492506008810190505b61271083106115c15761271083816115b7576115b6611f34565b5b0492506004810190505b606483106115e457606483816115da576115d9611f34565b5b0492506002810190505b600a83106115f3576001810190505b80915050919050565b60008073ffffffffffffffffffffffffffffffffffffffff168373ffffffffffffffffffffffffffffffffffffffff16141580156116b457508273ffffffffffffffffffffffffffffffffffffffff168473ffffffffffffffffffffffffffffffffffffffff161480611675575061167484846108ee565b5b806116b357508273ffffffffffffffffffffffffffffffffffffffff1661169b83610a74565b73ffffffffffffffffffffffffffffffffffffffff16145b5b90509392505050565b6000604051905090565b600080fd5b600080fd5b60007fffffffff0000000000000000000000000000000000000000000000000000000082169050919050565b611706816116d1565b811461171157600080fd5b50565b600081359050611723816116fd565b92915050565b60006020828403121561173f5761173e6116c7565b5b600061174d84828501611714565b91505092915050565b60008115159050919050565b61176b81611756565b82525050565b60006020820190506117866000830184611762565b92915050565b600081519050919050565b600082825260208201905092915050565b60005b838110156117c65780820151818401526020810190506117ab565b60008484015250505050565b6000601f19601f8301169050919050565b60006117ee8261178c565b6117f88185611797565b93506118088185602086016117a8565b611811816117d2565b840191505092915050565b6000602082019050818103600083015261183681846117e3565b905092915050565b6000819050919050565b6118518161183e565b811461185c57600080fd5b50565b60008135905061186e81611848565b92915050565b60006020828403121561188a576118896116c7565b5b60006118988482850161185f565b91505092915050565b600073ffffffffffffffffffffffffffffffffffffffff82169050919050565b60006118cc826118a1565b9050919050565b6118dc816118c1565b82525050565b60006020820190506118f760008301846118d3565b92915050565b611906816118c1565b811461191157600080fd5b50565b600081359050611923816118fd565b92915050565b600080604083850312156119405761193f6116c7565b5b600061194e85828601611914565b925050602061195f8582860161185f565b9150509250929050565b600080600060608486031215611982576119816116c7565b5b600061199086828701611914565b93505060206119a186828701611914565b92505060406119b28682870161185f565b9150509250925092565b6119c58161183e565b82525050565b60006020820190506119e060008301846119bc565b92915050565b6000602082840312156119fc576119fb6116c7565b5b6000611a0a84828501611914565b91505092915050565b611a1c81611756565b8114611a2757600080fd5b50565b600081359050611a3981611a13565b92915050565b60008060408385031215611a5657611a556116c7565b5b6000611a6485828601611914565b9250506020611a7585828601611a2a565b9150509250929050565b600080fd5b600080fd5b7f4e487b7100000000000000000000000000000000000000000000000000000000600052604160045260246000fd5b611ac1826117d2565b810181811067ffffffffffffffff82111715611ae057611adf611a89565b5b80604052505050565b6000611af36116bd565b9050611aff8282611ab8565b919050565b600067ffffffffffffffff821115611b1f57611b1e611a89565b5b611b28826117d2565b9050602081019050919050565b82818337600083830152505050565b6000611b57611b5284611b04565b611ae9565b905082815260208101848484011115611b7357611b72611a84565b5b611b7e848285611b35565b509392505050565b600082601f830112611b9b57611b9a611a7f565b5b8135611bab848260208601611b44565b91505092915050565b60008060008060808587031215611bce57611bcd6116c7565b5b6000611bdc87828801611914565b9450506020611bed87828801611914565b9350506040611bfe8782880161185f565b925050606085013567ffffffffffffffff811115611c1f57611c1e6116cc565b5b611c2b87828801611b86565b91505092959194509250565b60008060408385031215611c4e57611c4d6116c7565b5b6000611c5c85828601611914565b9250506020611c6d85828601611914565b9150509250929050565b7f4e487b7100000000000000000000000000000000000000000000000000000000600052602260045260246000fd5b60006002820490506001821680611cbe57607f821691505b602082108103611cd157611cd0611c77565b5b50919050565b6000606082019050611cec60008301866118d3565b611cf960208301856119bc565b611d0660408301846118d3565b949350505050565b7f6f6e6c7920726567697374727900000000000000000000000000000000000000600082015250565b6000611d44600d83611797565b9150611d4f82611d0e565b602082019050919050565b60006020820190508181036000830152611d7381611d37565b9050919050565b7f4e487b7100000000000000000000000000000000000000000000000000000000600052601160045260246000fd5b6000611db48261183e565b91507fffffffffffffffffffffffffffffffffffffffffffffffffffffffffffffffff8203611de657611de5611d7a565b5b600182019050919050565b600081905092915050565b6000611e078261178c565b611e118185611df1565b9350611e218185602086016117a8565b80840191505092915050565b6000611e398285611dfc565b9150611e458284611dfc565b91508190509392505050565b600081519050919050565b600082825260208201905092915050565b6000611e7882611e51565b611e828185611e5c565b9350611e928185602086016117a8565b611e9b816117d2565b840191505092915050565b6000608082019050611ebb60008301876118d3565b611ec860208301866118d3565b611ed560408301856119bc565b8181036060830152611ee78184611e6d565b905095945050505050565b600081519050611f01816116fd565b92915050565b600060208284031215611f1d57611f1c6116c7565b5b6000611f2b84828501611ef2565b91505092915050565b7f4e487b7100000000000000000000000000000000000000000000000000000000600052601260045260246000fd5b6000604082019050611f7860008301856118d3565b611f8560208301846119bc565b939250505056fea2646970667358221220340596c81dd7bda2217e46a2f9dd95b3890e84ecb8b47b2881d43e2bdcae04e864736f6c63430008140033",
  "linkReferences": {},
  "deployedLinkReferences": {}
}